:020000040002F8
:10600000E05D0020C1650200C9650200CB650200A9
:10601000CD650200CF650200D165020000000000DE
:10602000000000000000000000000000D365020036
:10603000D565020000000000D7650200D9650200A6
:10604000796B0200DB65020089700200B56C02000A
:10605000DB650200DB65020071670200DB650200A0
:10606000DB650200DB650200DB650200DB65020028
:10607000DB650200DB650200DB650200DB65020018
:10608000DB650200D16B0200DB650200DB6502000C
:10609000096D0200DB6502000D6D0200DB65020088
:1060A000DB650200DB650200DB650200DB650200E8
:1060B000DB650200DB65020000000000000000005C
:1060C000DB650200DB650200DB650200DB650200C8
:1060D000DB650200DB650200DB65020000000000FA
:1060E00000000000000000000000000000000000B0
:1060F00000000000000000000000000000000000A0
:10610000000000000000000000000000000000008F
:10611000000000000000000000000000000000007F
:10640000DFF80CD000F076F9004800474594020010
:10641000E05D002030B450E8012F93B2C4892344DA
:106420008489A34228BF1B1B0489A34202BFBFF378
:106430002F8F002007E0C3EA020340E80134002C5C
:10644000E9D14FF001000A6030BC704750E8012FDD
:10645000C2EA024240E801210029F7D1704730B476
:1064600050E8022F1FFAA2F3C488A34202BFBFF371
:106470002F8F00200DE0C48923448489A34228BFC4
:106480001B1BC2EA034340E80234002CE8D14FF062
:1064900001000A6030BC704750E8022FC2EA224275
:1064A00040E802210029F7D17047034653E8022F44
:1064B000D988B2EB324F4FF0000017BF92B241EAD9
:1064C000014142EA014104E05A68B2EB324F08BF91
:1064D000012043E80212002AE8D1704730B4044694
:1064E00054E8000F0D4644E80053002BF8D1156026
:1064F00030BC704730B4044654E8000F40EA010550
:1065000044E80053002BF7D1156030BC704730B41D
:10651000044654E8000F00EA010544E80053002B4C
:10652000F7D1156030BC704730B4044654E8000F12
:1065300080EA010544E80053002BF7D1156030BC18
:10654000704730B4044654E8000F00EB010544E8FE
:106550000053002BF7D1156030BC704730B40446AF
:1065600054E8000FA0EB010544E80053002BF7D1DD
:10657000156030BC704770B404464FF0000054E81A
:10658000006F0D68AE4207BF44E80023012044E8D5
:1065900000630E60002B1CBF0020F0E770BC70474A
:1065A00030B4044654E8000F88422CBF451A054613
:1065B00044E80053002BF5D1156030BC7047000053
:1065C0000648804706480047FEE7FEE7FEE7FEE78D
:1065D000FEE7FEE7FEE7FEE7FEE7FEE71D6E0200D0
:1065E000016402002DE9F05F0546002092469B46BB
:1065F00088460646814640241BE0284641464746D9
:10660000224600F067F853465A46C01A914110D30B
:1066100011461846224600F016F82D1A67EB0108BD
:106620004F4622460120002100F00DF817EB00092B
:106630004E41201EA4F10104DFDC484631462A46C3
:106640004346BDE8F09F202A04DB203A00FA02F11D
:10665000002070479140C2F1200320FA03F3194350
:10666000904070470048704730D9020040EA01036B
:106670009B0703D009E008C9121F08C0042AFAD2F8
:1066800003E011F8013B00F8013B521EF9D27047BC
:10669000D2B201E000F8012B491EFBD27047002264
:1066A000F6E710B513460A4604461946FFF7F0FF11
:1066B000204610BD421C10F8011B0029FBD1801A96
:1066C0007047034611F8012B00F8012B002AF9D17D
:1066D00018467047202A04DB203A21FA02F00021F4
:1066E000704721FA02F3D040C2F1200291400843E2
:1066F00019467047064C074D06E0E06840F001037C
:1067000094E8070098471034AC42F6D3FFF77CFEBC
:10671000ACE00200CCE0020070B58C1810F8015B10
:1067200015F0070301D110F8013B2A1106D110F82A
:10673000012B03E010F8016B01F8016B5B1EF9D12E
:106740002B0705D40023521E0DD401F8013BFAE7B4
:1067500010F8013BCB1A921C03E013F8015B01F81F
:10676000015B521EF9D5A142D8D3002070BD0000B4
:106770002DE9F04700268AB0DFF85091B0464FF47B
:106780008075012437460696284603F0CBFD38B1C4
:10679000D9F80403204203D0284603F0B9FD26436C
:1067A0002D1D64007F1CADB2082FEDD34FF4BE74D5
:1067B000204603F0B7FD48B1204603F0A9FD46F09E
:1067C000004606AA0121002003F08EFD404D16F080
:1067D000FF0F15D00127002437420DD009EB8401AB
:1067E000D1F81005D1F81015C0F3042055F8242075
:1067F000C1F3014102B190477F00641C082CEBD328
:10680000002E5FDA4FF0FF30CDF8108054E02819E9
:1068100010F8507F90F9000027F0C008401C3BD0D2
:1068200007A9404603F0C4F810B34FEA9719404651
:1068300002F0FCF855F820701FB1B9F1030F03D036
:1068400006E0B9F1030F27D104A9404603F0B8F8D8
:106850004FF0A04101EB8800D0F8000706A9C0F373
:10686000014A404603F0A4F818B1BAF1020F03D070
:1068700012E0BAF1030F0FD1B9F1030F08D1BAF149
:10688000020F1DD00221404603F0E8FC761CF6B250
:1068900017B149464046B847641C042CB7D3002EB4
:1068A00010D06A460121002003F01EFD06990098D1
:1068B000884207D006900498002634460790A6E741
:1068C0000321E0E70AB0BDE8F08700000060004067
:1068D000483300202DE9F041040007D0044E4FF466
:1068E0007A47751C3846A847641EFAD1BDE8F08186
:1068F00070CD020070B506465FF0000404F1B000F0
:10690000C0B200F0D0F8012000F0CDF8102000F067
:10691000CAF80025304600F0E2F86D1CEDB2802D7B
:10692000F8D3641CE4B2082CE8D370BD10B51B206A
:1069300003F0B3FC182003F0A2FC3220FFF7CAFFDB
:10694000182003F0AAFCAE2000F0ADF8002000F003
:10695000AAF8102000F0A7F8402000F0A4F8812049
:1069600000F0A1F8CF2000F09EF8A12000F09BF8E5
:10697000C82000F098F8A62000F095F8A82000F0B4
:1069800092F83F2000F08FF8D32000F08CF8002020
:1069900000F089F8D52000F086F8802000F083F818
:1069A000D92000F080F8F12000F07DF8DA2000F026
:1069B0007AF8122000F077F8DB2000F074F840201D
:1069C00000F071F8202000F06EF8022000F06BF863
:1069D0008D2000F068F8142000F065F8A42000F085
:1069E00062F8A62000F05FF8AF2000F05CF800200D
:1069F000FFF780FF0021BDE81040084600F040B8D6
:106A00002DE9F04792468946804600251B4E2FE02F
:106A10002038C7B2B8F1780F03D94FF0000809F158
:106A2000010909F0FF01404600F02AF85FF0000478
:106A300004EB0710305C00F052F8641CE4B2082C40
:106A4000F6D309F10100C1B2404600F019F8002464
:106A500004EB07103044007A00F041F8641CE4B203
:106A6000082CF5D308F108006D1C00F0FF08EDB20A
:106A70001AF805000028CBD1BDE8F0879ECF0200B0
:106A800010B50446B031C8B200F00DF8102040EA4D
:106A9000141000F008F804F00F00BDE8104040F0BA
:106AA0000100AFF3008070B505461A2003F0E7FB44
:106AB000002405FA04F000064FF0170002D503F099
:106AC000ECFB01E003F0DBFB1B2003F0D8FB1B20F9
:106AD00003F0E3FB641CE4B2082CEAD370BD70B58C
:106AE00005461A2003F0D9FB002405FA04F000063D
:106AF0004FF0170002D503F0D0FB01E003F0BFFB1D
:106B00001B2003F0BCFB1B2003F0C7FB641CE4B29A
:106B1000082CEAD370BD00F01F020121914040090A
:106B2000800000F1E020C0F88012704700F01F02E2
:106B3000012191404009800000F1E020C0F80011DF
:106B4000704700F01F02012191404009800000F1D0
:106B5000E020C0F8001270474907090E002806DA45
:106B600000F00F0000F1E02080F8141D704700F1E4
:106B7000E02080F80014704770B54FF480763046FE
:106B800003F062F8114CB50560B1304603F063F8CC
:106B90000120C5F80803607920B9012060712168DF
:106BA000002088474FF48276304603F04DF80028E5
:106BB0000AD0304603F04FF80220C5F808032168D8
:106BC000BDE870400120084770BD0000FC2A00208D
:106BD00007480021C0F84011C0F84411C0F848111E
:106BE000C0F84C11C0F80011C0F8041105F0D4BC75
:106BF0000010014000F04EBA70B50E46144900EB8B
:106C0000400001EBC0051446E86A183520B10128A0
:106C10000FD0022805D113E0284600F06FFAA042F9
:106C200001D2002411E022463146284600F09EFAA7
:106C30000BE0284600F062FAA042F4D20446F2E7E4
:106C40003146284600F065FA0446204670BD000033
:106C5000583B0020F8B50C46054600F09FF8124A54
:106C600020201070200155709070104C0020D070C2
:106C70002070042002F58073024600900A490C48F7
:106C800003F05EF808B100F0ABFB20780028FCD0E0
:106C9000074E0A25083E4FF47A47741C3846A04731
:106CA0006D1EFAD1F8BD000000300020CC2A002073
:106CB00098D50200F8B51248124E04464FF48C7174
:106CC00004F021F900281AD00025C4F81851D4F88E
:106CD00018010090F07F3446FF2806D0A17F11B143
:106CE00003F0D4FA01E003F0DFFA65772572D4E906
:106CF000002101B004F10800BDE8F0401047F8BDE4
:106D000000300040F433002005F094BB04F090B84C
:106D1000F8B5114B054603201870080C5870080A86
:106D200098701446101D0D4EC2B2D97000203070FC
:106D300003F5807308490A48009203F001F808B18E
:106D400000F04EFB30780028FCD02246054928464A
:106D5000FFF78CFC0020F8BD00300020CC2A00207A
:106D600098D502000431002038B50949094C0122A8
:106D700008700020207001F580730748009202F02F
:106D8000DFFF08B100F02CFB20780028FCD038BDD4
:106D900000300020CC2A002098D5020010B5054C08
:106DA000002020700620FFF7DFFF20780028FCD0AD
:106DB00010BD0000CC2A0020F8B515460C4606464A
:106DC000FFF7ECFF114802212A4600F8011B210CB5
:106DD00000F8011B210A00F8021B314600F8014CA3
:106DE000FFF744FC2D1D0A4C0020EAB220700090F1
:106DF000084B0649084802F0A3FF08B100F0F0FA7A
:106E000020780028FCD00020F8BD000000300020D1
:106E1000CC2A00200031002098D5020070B58D48A2
:106E20000023021D0178101D0124062907D11578C1
:106E30002D0704D10578C5F30315032D02D00629CB
:106E400004D00FE0854E844D75670EE015782D0750
:106E500008D10578C5F30315032D06D0042D04D001
:106E6000052D02D0062909D010E04FF08055D5F845
:106E700044527B4EC5F34235356002E015782D074C
:106E800004D10578C5F30315032D02D0062906D0D9
:106E900011E0744D2E6826F080762E600EE0157895
:106EA0002D0708D10578C5F30315032D06D0042D51
:106EB00004D0052D02D006290AD011E04FF08045FC
:106EC000C5F80C31C5F81031654D2D1F2B6002E05F
:106ED00015782D0704D10578C5F30315032D02D0CD
:106EE000062905D00CE05E4A0321643211600AE0F5
:106EF00015782D0704D10578C5F30315032D02D0AD
:106F000006290DD06AE0584A0521116056497831AA
:106F10000C60554908310B603F21121D116002E0E1
:106F2000117809075AD10078C0F30310052855D10C
:106F30004E4800684E4908604C48001D0068091D15
:106F400008604A4808300068091D086047480C304E
:106F50000068091D0860454810300068091D086078
:106F6000424814300068091D086040481830006825
:106F70003F49203108603D481C300068091D086009
:106F80003A4820300068091D0860384824300068FD
:106F9000091D0860354828300068091D086033481D
:106FA0002C300068091D08603048303000683049D6
:106FB000403108602D4834300068091D08602B48B6
:106FC00038300068091D086028483C300068091DF9
:106FD0000860264840300068091D08602148743860
:106FE000016841F470010160BFF34F8FBFF36F8FF1
:106FF0004FF01021D1F80002002803DBD1F8040281
:10700000002822DA1B4A14601B480468002CFCD0BC
:107010001524C1F800420568002DFCD0C1F80442D7
:1070200001680029FCD0136001680029FCD0BFF37F
:107030004F8F0C48F0380168104A01F4E0611143A9
:107040000160BFF34F8F00BFFDE70E490C48086099
:1070500070BD0000E00F00F00DF0ADBA00C00740B9
:107060003C050040FCED00E0105600400404001018
:1070700020C5004004E5014000E401400400FA0599
:107080000090D003EC2B002001480068004700006E
:10709000042B002010B5124C02202061606111A069
:1070A000A06104F17800E0614FF4007020620020DC
:1070B000A06260620BA1A164E06204F51E71E1644C
:1070C0001021A065C4E91410E06509A1E01DFFF7D7
:1070D000F8FA08A12046FFF7F4FA2020A07110BDAD
:1070E000583B00205465726D696E616C00000000B1
:1070F0005254540053454747455200000269C16845
:107100008A4203D88068401A104400E0501A401E9A
:1071100070472DE9F047C4681746894606464FF088
:1071200000083069A04201D9051B02E0B168201AAD
:107130000D1AB0686D1E001BA84200D80546BD425E
:1071400000D33D4670682A4620444946FFF78EFA30
:10715000B0687F1B2C44A844A944A04200D100245D
:10716000F460002FDDD14046BDE8F0872DE9F04105
:1071700004468846D4E90207C51BE16860681646E4
:107180000844B54206D94146FFF770FAB819E060E5
:10719000BDE8F0812A464146FFF768FA761B08EB06
:1071A000050132466068FFF761FAE660F0E700002B
:1071B000014A024900F031B82D8F0200842B0020D3
:1071C00002E008C8121F08C1002AFAD170477047B0
:1071D000002001E001C1121F002AFBD1704700000E
:1071E0000121202803DA81400548014003E04028BE
:1071F00002DA2038814009B1012070470020704731
:10720000FC06FFBD082806D228B1012803D00428B7
:1072100001D001207047002070472DE9F04116464B
:107220000F460446002503E03946B047641C6D1C38
:1072300020780028F8D12846BDE8F08110B5012259
:107240000221002001F002FA08B1072838D10722F4
:107250000221012001F0FAF908B1072830D10021FC
:107260000A22084601F0F2F908B1072828D10B22BA
:107270000121002001F0EAF908B1072820D10E22EF
:107280000121002001F0E2F908B1072818D11022ED
:107290000121022001F0DAF908B1072810D11122EA
:1072A0000121032001F0D2F908B1072808D10121FA
:1072B0000F22084601F0CAF908B1072800D10020C2
:1072C00010BD022001F0B6B870B50024064D06E0EE
:1072D0006868012110F8340003F098FE641C2878D7
:1072E0008442F5D3002070BD102B0020F8B5154660
:1072F0000C460646052A01D20720F8BD03F082FF9E
:1073000018B903F047FF0028F7D1124900224E6058
:107310000C708D60C1E90422C1E906220E4D0DE01A
:1073200006EBC4002968009181788DF8011000787F
:107330000A4A694603F0BCFE0028DED1641EE4B2AE
:10734000EED2BDE8F84004480021054A001D00F0D7
:107350007BB80000102B002034D60200C18F020041
:10736000FD8C020072B603F065FA00BF03F0A4F8CA
:107370000028FBD1104C0121208801EB00400FA117
:1073800003F0AAF910480068C00700D000BE2088AA
:10739000022101EB00400DA103F09EF9BFF34F8FD6
:1073A0000948E43801680D4A01F4E06111430160C5
:1073B000BFF34F8F00BFFDE7242C002046617461AE
:1073C0006C206572726F7200F0ED00E05379737497
:1073D000656D207265736574000000000400FA0595
:1073E0000EB500210091CDE901106A4644F201007A
:1073F000FFF7B8FF0EBD10B58268C368934203D093
:1074000001F01CFD002010BD052010BD29B112B1F6
:10741000531E134203D0092070470E2070470160AD
:10742000838000218160C1600846704710B5826882
:10743000C3689A1A83889A4203D801F009FD002094
:1074400010BD042010BD0000074B9B7823B12AB16A
:1074500020B10068037C1BB10820704707207047EB
:1074600041744261002070475034002070B504F030
:107470001DFD104800240B21047044700E4D8170D6
:1074800014206C602C706C70FFF745FB07211420F2
:10749000FFF762FB1420FFF749FB0848046007214F
:1074A0001120FFF759FB0548001F0068A860002065
:1074B00070BD000050340020302B00200815014022
:1074C0002DE9FC47DFF8789099F8023073B368B380
:1074D000052902D20720BDE8FC87436933B3437C0A
:1074E000012B25D0002704460025884616468DF836
:1074F0000050684600F0CEF801A805F089FBC8B13D
:10750000012101700F4944600968C0E90218C0E90F
:1075100004769DF8040089F801009DF8000000F051
:10752000DDF81420FFF70DFB2846D4E70820D2E74A
:107530000F46D8E704259DF8000000F0CFF8F3E7E8
:1075400050340020041501400649897839B130B122
:10755000416921B100210174022104F0F9BF082022
:10756000704700005034002070B50A4E01460A48AA
:10757000B578FFF740FF04464DB10020B070711C94
:107580000122C81D02F01CFC08B1FFF729FF2046AC
:1075900070BD0000442B00205C350020F0B5244E67
:1075A00089B01F460D00044672603FD0A888296844
:1075B00082B22048FFF72AFF002835D1A889A968A0
:1075C00082B21C481030FFF721FF00282CD1202266
:1075D00019496846FFF74AF860690690207C00B1B7
:1075E00001208DF814008DF81C70607C00B10E2015
:1075F0008DF81500E0680290A06803902068019063
:10760000606800900A480D4A6946083002F0A4FB01
:10761000002809D1B0702068401C05D0044901221F
:10762000491CC81D02F0CCFB09B0F0BD0720FBE7E8
:10763000442B00205C35002048D6020091C7020090
:1076400010B501461048FFF7F1FE040019D10F48AC
:107650000F4A0178515C19B1001D04F057F902E09E
:107660000C3004F03BF860B9084907480839FFF7C7
:10767000C2FE30B9054901220839044802F0B0FBC6
:107680000446204610BD00006C3500204C2B002025
:10769000F02A002030B5EFF3108172B60D4A9468DD
:1076A000012324B10370002900D162B630BD93607C
:1076B0004FF0E023D3F88051074C25401560C3F804
:1076C0008041D3F8844154605A17C3F884210022C2
:1076D0000270E8E77C350020FC06FFBD0B498A6894
:1076E000002A11D000280FD1EFF3108072B60B687A
:1076F0004FF0E022C2F800314B68C2F8043100229A
:107700008A60002800D162B6704700007C350020F6
:107710002DE9F041064608680C46411C4FF0A04791
:107720004FF0010506D005FA00F1C7F808152068EA
:1077300002F076FD6068411C02D0002102F056FD87
:107740003168A069C1F82405607D227D316810434D
:10775000C1F86C05D4E900123068C0F81425C0F8EF
:107760000C15207D012815D1A068411C02D00021F4
:1077700002F03CFDE068411C05D08540C7F8085583
:10778000E06802F04DFDD4E902123068C0F8082527
:10779000C0F81015BDE8F0812DE9F04106460868F3
:1077A0000C46411C4FF0A0474FF0010506D005FAEA
:1077B00000F1C7F80815206802F03CFD6068411C24
:1077C00002D0002102F01BFD3168A069C1F8240538
:1077D000607D217D32680843C2F86C05D4E900124F
:1077E0003068C0F80C15C0F81425207D012815D18B
:1077F000A068411C02D0002102F001FDE068411C9C
:1078000005D08540C7F80855E06802F013FDD4E9BB
:1078100002123068C0F80825C0F81015BDE8F081E4
:1078200070B51500044609D00020286034B12068E6
:1078300020B1A079800703D0072070BD0E2070BD55
:10784000084600F037FBC0B2142804D021798142E9
:1078500003D8042070BD052070BDE288216800FBBC
:1078600002102860002070BD2DE9FC470025178814
:107870000646158090F82D001446894630B13A46E8
:107880002146484600F02AFB051E09D1B0784FF08A
:107890000C0A18B32088C846001DB84202D95046C9
:1078A000BDE8FC87684679DF0028F9D120880321EC
:1078B00008F8001020881921401C80B2208008F8A8
:1078C00000102088401C80B2208000EB0801BDF829
:1078D000000005F0EBF8218808442080F0780222AF
:1078E000C8B1218896F9033001F1030C4846BC4524
:1078F000D5D8425421884FF0010C491C89B221800F
:1079000000F801C02188491C89B2218009F80130A2
:107910002088401C20807068B8B1218890F9003020
:1079200001F1030C4846BC45B9D8425421880A22CB
:10793000491C89B2218042542188491C89B2218086
:1079400009F801302088401C2080308950B1CDE9F1
:1079500000474B460622022106F1080005F070F9A7
:10796000051E9DD1308A50B1CDE900474B46072214
:10797000032106F1100005F063F9051E90D1308B4C
:1079800050B1CDE900474B461522142106F11800ED
:1079900005F056F9051E83D1306A30B13B462246C8
:1079A000494601F0E2F8051EDBD1706A30B13B4672
:1079B0002246494601F078FE051ED2D196F82C00E9
:1079C00038B13B4622464946304604F0C5FB051E09
:1079D000C7D1307838B13B4622464946304601F09F
:1079E000E9FE051EBDD128465AE718B50446002019
:1079F000ADF8000013466A46204600F006F800285D
:107A000002D0BDF80000204418BD70B588B182B125
:107A10000024158803E0065D641C3444A4B2A5422A
:107A200003D8061976789E4201D08C42F3D38C425B
:107A300001D3002070BDA11C1180005D401E80B2EA
:107A400070BD80F8301070472DE9F0410D000446FC
:107A500006D02CB195F87A000026012803D006E064
:107A60000E20BDE8F08195F89800012829D0D5F8BE
:107A7000A000042825D0D5F89C00042821D04FF080
:107A80000108A6702C2205F17801201DFEF7EEFDFD
:107A900084F83060D5F8A4006063D5F8A800A0632E
:107AA0004FF6FF70A4F8A80004F19400C4F8A400F5
:107AB000C4F8AA60A4F8AE6084F8B060207810B171
:107AC00004E00720CDE7FF2084F8540004F15501BD
:107AD0001F27C4F89410A4F8987004F1980228465F
:107AE000FFF7C2FE0028BCD115F13C0F0ED004F107
:107AF0007401C4F89C10A4F8A07004F1A00205F170
:107B00003C00FFF7B1FE0028ABD103E0C4F89C6055
:107B1000A4F8A06084F85180208BA4F8480084F871
:107B20003C80266484F8506060696064454604F1D6
:107B30003C02002104F1540072DF002891D125702D
:107B40008FE710B50288102A1BD0112A20D0262AD0
:107B50001DD1007A0C46012801D0022817D1A07847
:107B60000521401CB0FBF1F201FB1201204600F0A0
:107B700052F800280BD0A16B002908D0BDE81040B6
:107B80000847C27B012A02D18088A1F8A80010BD55
:107B90000C46002184F8B2108088B4F8A8108842FE
:107BA000F5D120790028F2D10121DFE710B50C468C
:107BB000022801D0032810D1607800280DD00020C1
:107BC0006070A178204600F026F8002805D0A16B4F
:107BD000002902D0BDE81040084710BD10B504468A
:107BE00090F8540074DF012084F8B200002084F87B
:107BF000B40084F850000621204601F032F9002834
:107C000008D1A178204600F006F810B1A16B01B1AF
:107C10008847002010BD2DE9F05F044600780F462C
:107C200038B1A770002002F0F1F9012620B166708A
:107C300007E10820BDE8F09F0025C4F8AA50A4F889
:107C4000AE5084F8B050A07910B1A078012806D0C9
:107C5000E07968B1A078012801D0022808D1616BD1
:107C600021B184F8B1600820884701E084F8B15060
:107C700004F1AB0100200A5C0AB1304603E0401C6D
:107C80000628F8D300204FF002084FF0030B012F15
:107C900006D0022F0CD0032F0FD0042F15D110E0E7
:107CA000A17929B194F8241011B908B130460DE03A
:107CB000E17911B108B1404608E0207A08B1584690
:107CC00004E0607A08B1042000E02846A070616BEF
:107CD00041B1032801D0042804D1607910B194F88F
:107CE000B200A0B184F8B35004F13C00182107465B
:107CF000FEF7D5FC04F12C0084F83C60814603F0CB
:107D0000E3FF58B194F82C0084F8510008E084F89F
:107D1000B45084F8B36007208847E5E784F85160E1
:107D200094F8240050B1484603F0CEFF20B194F8F7
:107D3000280084F8520001E084F8526084F8505022
:107D4000A27804F1AA0104F194094FF0060A052A69
:107D500060D2DFE802F078030F223F0084F8316040
:107D6000C4F8A450C4E9101584F83C808020A4F81D
:107D7000480051E084F8318094F82420384612B14C
:107D80000722027001E080F800B0228A8281C4F8E4
:107D9000A4504160E168B9603EE06069B860208B42
:107DA000B88194F824003D4610B184F83CA001E06D
:107DB00084F83C60204604F00DFF40B185F8148043
:107DC0000421204601F04DF820BB05211EE084F877
:107DD00031B01DE0E069B860208CB88194F82400CF
:107DE0003D4610B184F83CA001E084F83C60204698
:107DF00004F0F0FE48B185F814800421204601F01B
:107E000030F838B984F831A002E0042184F8311048
:107E1000C4F8A490A07878B13A4604F15400D4F89C
:107E2000A41072DF00287FF405AF94F8301094F8A6
:107E3000540073DF0028F6D1616B11B194F8310062
:107E400088470020F6E684F83150F5E770B5040065
:107E500012D001461C221448FEF708FC1248134DAC
:107E60000560206850B17ADF002806D120680168DB
:107E700029604068686005E00E2070BD0B487BDF1C
:107E80000028FAD108484FF6FF711438084A20F844
:107E9000041B0549343901600021FFF7D5FA002899
:107EA000EBD0032070BD0000A0320020E82A0020A3
:107EB0006DCB020010B5044600F006F808B120466C
:107EC00010BD142010BD0000142801D300207047FD
:107ED0000146014801F0DDBCC03200207CB50546FA
:107EE00008880C460930904201D90C207CBD6846B8
:107EF0006DDF0028FAD121880820685420881B21D2
:107F0000401C80B2208029542088401C80B22080F0
:107F10002844DDF801100160BDF80510818020883B
:107F2000801D80B220809DF80010490800D00121FA
:107F300029542088401C208000207CBDF8B5294DA4
:107F400002880446AE88212A37D011DC26484FF03B
:107F50000301102A008801EB004013D0112A25D01C
:107F6000132A29D100231A46852130467FDF17E0E6
:107F70003B2A32D0522A2AD0562A1DD1808813217A
:107F800076DF0DE019A102F0A7FB072000F080FBCF
:107F900008B1FFF725FAA188A980174801F0DCFD98
:107FA000002809D0BDE8F840FFF71ABA13A102F083
:107FB00093FB4FF6FF70A880F8BD00200090A088CA
:107FC00069468FDF0028F7D0FFF70AFAF8BD0023D3
:107FD0001A4619463046B1DFE2E78088132176DF82
:107FE000DEE70000A02A0020242C0020436F6E6EE4
:107FF00065637465640000003C2F0020446973636E
:108000006F6E6E65637465640000000010B51A4CF5
:108010000188606810290ED011292BD1401E6060A4
:1080200028D1FFF70BF9002824D02168002921D09E
:10803000BDE810400847D0B900210122084600F0F1
:1080400005FB08B107280FD107220221012000F00B
:10805000FDFA08B1072807D104220221002000F010
:10806000F5FA20B1072802D0216801B1884760687D
:10807000401C606010BD0000E02A00202DE9F047A0
:1080800001883B4E40F2F3194FF6FF7510291BD0C3
:1080900011293ED0122954D0502946D1C188F289E5
:1080A000841D914241D1618902293ED186883046A2
:1080B00000F0EAFF050038D004F10C0000F076F97A
:1080C000A8B3294630464EE0C17B87880446012983
:1080D0002BD1A846284600F0D7FF050017D02F80E7
:1080E00000202872234843464A460168C5F80A1012
:1080F0004068C5F80E0004F1100105F10A0001F016
:1081000087F86872F08900280FD129462AE00420F8
:1081100013E0808800F0B8FF040006D06068FFF725
:1081200013FA08B103F0E8FF2580BDE8F087FFE708
:108130006868FFF709FA0028F7D0BDE8F04703F0B8
:10814000DBBF87880646384600F09EFF0400ECD06F
:108150002B464A4606F1080104F10A0001F058F8DE
:10816000607221463846BDE8F04700F045BD00008A
:10817000A0320020E82A00202DE9F04F074685882C
:1081800002883D48012197B08346102A09D0112A60
:1081900049D01A2A6CD1387AB1EB101F45D201228E
:1081A00044E0354C083CA068C0430B9061680BA8C4
:1081B00001F090FB0B990CA800F0B8FC2C220CA944
:1081C0006846FEF753FA0026E946A04610E000BFD5
:1081D00009EB46005FF00004B0F804A008EB84004F
:1081E0005146001D01F04AFB641C1D2CF6D3761C81
:1081F0000098B042ECD8142D05D317B00420BDE888
:10820000F04FFFF7EDB82946584601F04DFB2946DF
:1082100008F1040001F048FBF87B012828D016483B
:108220002946001D15E029461AE000220221B1EB83
:10823000101F01D2012600E000260F49083901F184
:108240001000041D294682B101F02EFB36B12946EB
:10825000204617B0BDE8F04F01F026BB2946204666
:1082600017B0BDE8F04F01F009BB01F007FBF5E7DF
:1082700017B0BDE8F08F0000C4320020F0B585B023
:1082800016460F4604001D4614D004AA194660691C
:10829000FFF7C6FA00280BD1A5F57F40FF380BD0B9
:1082A000049848B1007848B13088F42808D90720EC
:1082B00005B0F0BD0E20FBE70520F9E70820F7E741
:1082C00000200090019002900390A088ADF800007B
:1082D00001208DF80200CDE9026769462846AEDF2D
:1082E000E6E7000030B5144B0D4604000FCB85B017
:1082F0008DE80F001ED0EDB12868A06121466846C8
:1083000062DF002814D120788DF812000120ADF82A
:108310001000A21C04A9A8DF002809D12946204684
:1083200003F0FBFD002803D12946204604F07EF926
:1083300005B030BD0E20FBE704D6020070B588B052
:108340000446002924D0002C22D008462188102978
:1083500020D0502924D057291AD10546A188406938
:1083600006AAFFF75DFA002812D1069E3078002891
:108370000ED018216846FEF792F901208DF8000012
:108380000195A088ADF808000396A969684688475A
:1083900008B070BD08B02146BDE8704003F07ABB5C
:1083A00008B02146BDE8704003F04CBC007800F0F6
:1083B000010070470149085C70470000BCD502000D
:1083C0000649095C4FF0A040D0F81005C84010F0F5
:1083D000010000D0012080F001007047BCD50200F0
:1083E0002DE9FC410646C0074FF000050ED0104FA6
:1083F00000240122385D009500231146019501F00B
:108400009BFE641C042CF4D300F046F8B0070DD595
:10841000074E0024361D0022305D032300951146CF
:10842000019501F089FE641C042CF4D3BDE8FC81A5
:10843000B8D5020007490B5C4FF0A041D1F80425E4
:108440000120984020EA0203C1F808351040C1F825
:108450000C057047B8D502000249085C012101F003
:1084600038BF0000B8D502000249085C002101F0C5
:1084700030BF0000B8D502000649095C4FF0A040AB
:10848000D0F80405C84010F0010000D0012080F0B1
:1084900001007047B8D5020010B500242046FFF750
:1084A000DBFF641C042CF9D310BD10B5002420465A
:1084B000FFF7DAFF641C042CF9D310BD10B5024697
:1084C000064B4FF0FF3000215C5C944201D108461E
:1084D00010BD491C0429F7D310BD0000BCD5020013
:1084E00070B5094E0C004FF00005306005D001203A
:1084F00000F064F808B102202070706810B9FEF72F
:108500009DFE0546284670BDE02A002010B50020DB
:1085100000F0F0F908B1062806D1012000F0EAF9D0
:1085200008B1062800D1002010BD00002DE9F04759
:108530000D468146FFF7C2FF0446042836D2DFF815
:1085400074801B481C4EA8F10C0725B3012D0ED0DA
:10855000022D2BD104EB440030444578002D25D06A
:10856000B968002922D02846BDE8F047084704EB47
:108570004401755C0E44717849B10E4A4FF40041D4
:10858000093A8068FEF79CFF08B987F80390B17834
:1085900008F80410E2E78068FEF7D6FF04EB440118
:1085A000314418F804008D78A842D7D0BDE8F08790
:1085B000C0D50200DC2A002040320020042801D26D
:1085C000FFF7FEBE00207047011F1E4810B58088CF
:1085D0000E291ED2DFE801F00B1D1D141D1D071D05
:1085E0001D1D1E20272EBDE8104003F0F9BD1321EC
:1085F00076DF0CE000280CD0BDE81040FEF7F0BE9E
:10860000A0F57F41FF3904D10F48FFF7E7FA0828AA
:10861000F0D110BD112011E0122001F04CFEBDE898
:10862000104000F059BC132001F045FEBDE8104099
:1086300000F02CBC142001F03EFE0C20BDE81040E0
:1086400001F039BEA02A0020482F002070B5002379
:10865000042810D20D4D00EB4004012A02D101295B
:108660000CD00022094E00EB4000304461B10129DA
:1086700006D0022906D00723184670BD0E30C2B2BC
:108680002A55F9E74270F7E78270F5E7403200209B
:10869000044A014600201279D20702D0084600F0B1
:1086A0004DB87047D02A002070B506461E480024F9
:1086B000C0E90161B00720D50025012211462846F6
:1086C000FFF7C4FF6D1C0446042D02D2002CF4D029
:1086D00013E094B940F2666204211448FEF706FEE6
:1086E00004000AD1FEF7F0FD040006D10F48104A3D
:1086F0000021001FFEF7A8FE0446F00712D001205B
:10870000FFF76EFE74B909480A4A00210C38FEF7DB
:108710009BFE040006D10548074A01210838FEF7F0
:1087200093FE0446204670BDD02A0020CCD502001E
:10873000C189020085920200C37202002DE9F05F38
:108740006A4C054600266078B34618B184F801B03B
:1087500000F080FD664F4FF47A694FF4C87A4FF00D
:108760000108182D62D2DFE805F0AC0C0C31404D49
:1087700062676B746B74BE7D7D7D7D7DACAFB2B581
:10878000BEBE0020FFF778FE00284FF0000008D0A2
:10879000FFF762FE022D02D14FF4E16008E0484687
:1087A00006E0FFF761FE022D01D1C82000E050462F
:1087B000410CC0034FF4FA72801841F1000125709A
:1087C00052000023FDF70EFF01462AE00020FFF7CC
:1087D00053FE00284FF0000004D0FFF73DFE4FF499
:1087E0004870E5E7FFF740FEDFE70020FFF744FEB3
:1087F00000284FF0000002D0FFF72EFECFE7FFF772
:1088000033FED4E70020FFF737FE00284FF00000CA
:1088100002D0FFF721FE01E0FFF726FE257041F6AA
:108820009A1100223868FEF74BFE064646E000200B
:10883000FFF700FE257008E0002051E025703DE0C4
:1088400084F801800120FFF7F5FD002240F6CD41BC
:10885000E8E784F801800120FFF7ECFD00224FF4E7
:108860008041DFE77868FEF76FFE0646D5F111001C
:1088700000D02EB10220FFF7EFFD84F802B01DE01A
:10888000012816D980B2C8214843C117C90341EA5B
:108890005041C0034FF4FA72801841F100015200B8
:1088A0000023FDF79FFE014600227868FEF708FED0
:1088B00006460220FFF7D8FD84F802803046BDE866
:1088C000F09F00F0C7FCB9E700F0C4FCB4E700F08B
:1088D000C1FC04E000F0BEFC0020FFF7C5FD012054
:1088E000FFF7C2FDAAE7FFF7E0FDA7E7D02A0020C7
:1088F000C0D50200012104F00ABA00002DE9F843B6
:108900000546861C00208DF8000090460F464FF06B
:1089100001096846FEF7BEFE1B4C20683860D4E9AA
:108920000001401AA16804F21C47081A0EE0012158
:10893000384600F0C9FF00F037FD0146384600F028
:10894000C3FFD4E90001401AA168081A401C8642FE
:10895000EDD8B8F1000F03D0052065F3891002E0CF
:10896000062065F39F50A2682168114004EB810145
:10897000C8602068304420609DF80000FEF7AEFE1D
:108980004846BDE8F88300003437002030B48268E0
:108990000468531C8360A154D0E901128A4202D3B7
:1089A00030BC01F03ABA30BC70470000034803C83D
:1089B000814201D1012070470020704734370020E8
:1089C00000780221FFF7B2BD05494FF0FF320828B9
:1089D00041F8202002D3084480F848207047000066
:1089E00048330020F0B54FF0FF3512B100230826C0
:1089F00001E008230C260C4C05E000BF54F823705E
:108A00007F1C04D05B1CB342F8D32846F0BD261867
:108A10005DB286F8305044F82310002AF5D1E118F1
:108A200081F84800F1E7000048330020024908447B
:108A300090F93000704700004833002070B5084CB2
:108A4000050009D010342168002907D0086820608B
:108A5000496828468847F6E70834F4E770BD000007
:108A600034330020054A012120B1012805D191703D
:108A7000FFF7E4BF51700020FAE77047343300205D
:108A80002DE9F05F26484168F1B3DFF898B00E6831
:108A90008146DBF8004087688078E11B21F07F4544
:108AA000ED1CB0B9DFF880804FF48030C8F8440383
:108AB000C8F804031120FEF72EF81120FEF736F84F
:108AC0004FF0010AC8F800A02F2002F097FA89F8A9
:108AD00002A0B54200D23546124BE8193C3320F0D3
:108AE0007F401860DBF800105A46091B21F07F41D7
:108AF000001B20F07F40C91C81420FD9106818600C
:108B00002F2002F07BFA00E004E0BDE8F05F1120C6
:108B1000FEF717B8BDE8F05F03F0C8B9BDE8F09FF5
:108B2000302B0020041501400010014073B58CB0BB
:108B30000646002000900D9880B100246D46214625
:108B40000DA800F0A6FE30B1009805EB400084802F
:108B50000098401C0090641C142CF0D32C22694611
:108B60003046FDF783FD0EB070BD2DE9F04117884A
:108B70000646B81D14460D46984202D90C20BDE8A1
:108B8000F0813188072206290AD34FF4486C4FF64A
:108B9000FF73614501D9994202D17088062801D23C
:108BA0001046ECE7604501D99842F9D1994203D0CB
:108BB000984201D08142F3D80520E855208812213F
:108BC000401C80B2208029542088401C80B2208024
:108BD0004119308803F06AFF2188084480B2208060
:108BE0004119708803F062FF21880844208000202A
:108BF000C5E7FEF7F5BB000038B54A7A0F4B62B106
:108C000000220A725969002906D001228DF800203D
:108C1000ADF802006846884738BD0A7A62B19B68A1
:108C20004C68024619462046FEF74AFC0028F3D05D
:108C3000BDE8384003F060BA5B68F1E7A03200207D
:108C4000F0B587B0074600200490ADF810100590ED
:108C5000ADF812100190029001AA04A9384690DFE5
:108C6000060022D002F070F9114C0346012520883D
:108C70003A4605EB00400F4901F039FDBDF80420EC
:108C800012B9BDF8060038B12088BDF8063005EBF2
:108C9000004009A101F02BFDBDF808202AB1208871
:108CA000154905EB004001F01BFD07B03046F0BD53
:108CB000F02B002034D9020054686520726571756C
:108CC00065737465642054582F5258207061636B2B
:108CD0006574206C656E67746820697320746F6FAB
:108CE000206C6F6E672062792025752F2575206FA7
:108CF00063746574732E000080D902002DE9F0477B
:108D00000025DFF88C803CE06068002100EBC506A0
:108D1000012032789146FDF796FCD4E9062300EA5B
:108D2000020701EA030C57EA0C0728D082438B4361
:108D30004846C4E9062302F023FA32788246914677
:108D400001200021FDF77FFCD4E9042300EA02049E
:108D500001EA03074A4650460021FDF774FC4440EF
:108D60004F403C430BD17078012801D0012100E035
:108D70000021726881EA0A010AB1484690476D1CD9
:108D8000EDB298F8000044468542BDD3BDE8F087B7
:108D9000102B002010B50021024800F0A6FD80F342
:108DA000100010BD503B00200E4910B50A784C78D9
:108DB0000023A24212D0521CD2B20A70022A00D161
:108DC0000B70084A0B780C3252F823200260886836
:108DD000104420F07F408860012010BD0360002017
:108DE00010BD0000302B002030B50446006887B06D
:108DF0000D46806800281FD018216846FDF74FFCFB
:108E00000195A0680590207910B1012810D107E0E4
:108E100001208DF8000020690290E068039005E0D1
:108E200002208DF80000E068000302906069049061
:108E3000206881686846884707B030BD82688388AB
:108E40001A4003689A5C0A708168491C8160704707
:108E5000C26883881A4003689954C168491CC1607C
:108E6000704770B50D460446B0F89810D0F89400DD
:108E70000122FEF7BAFD00B1057004F13C0204F1D5
:108E8000940104F1540072DF70BD000070B50C4C09
:108E900000200146207001222046FDF739FF094DD0
:108EA000032609A1288806EB004001F015FC28885C
:108EB000227806EB0040BDE8704006A101F010BC2E
:108EC000A22A0020242C0020526561642064617471
:108ED00061203D002563000070B500210846FDF7C4
:108EE000B9FE012200210A48FDF766FF094C03255F
:108EF00009A1208805EB004001F0EEFB04480AA11F
:108F00000278208805EB0040BDE8704001F0E8BB26
:108F1000A02A0020242C00207772697465206461E7
:108F20007461203D000000002563000010B5044678
:108F3000C0B2FEF785FB204610BD00000B484A88F2
:108F400083889A4211D10A88A2F52063773B0CD11D
:108F50008988C91E8AB2C280054803211346008849
:108F600001EB004003A101F0C2BB7047A02A002022
:108F7000242C002044617461206C656E206973208C
:108F800073657420746F2030782558282564290073
:108F900010B50949094800F029FD08B1FEF720FA8B
:108FA000F721064800F016FD002803D0BDE8104068
:108FB000FEF716BA10BD00003D8F0200282F0020DA
:108FC0002DE9F0418046024601200021FDF73BFBE0
:108FD0001A4F05460E467868FEF7B6FA00280CD1FF
:108FE000174CD4E9062110462A4001EA06031A4329
:108FF00005D0A843B143C4E90601BDE8F08140466D
:1090000002F0BEF830B1D4E9040128433143C4E989
:10901000040105E0D4E90410A943B043C4E90410F5
:10902000D4E9060128433143C4E90601A168786800
:10903000BDE8F0410022FEF743BA000034D602003A
:10904000102B00201FB50E4B0FCB8DE80F001D20FD
:109050008DF803001C208DF8020002208DF801001D
:1090600003208DF8000006480023064A69461038A0
:1090700000F02EFE002801D0FEF7B2F91FBD00005F
:10908000A8D50200A9C202000146034802888A420C
:1090900000D00020704700008C3200202DE9FC5FDA
:1090A0000E008346DDE90C47C6F100009846924663
:1090B000814600D40846012503E000BF90FBFAF08A
:1090C0006D1C5045FADAA84500D9454624B1002E5A
:1090D00001DB780700D5641EB80702D5B8F1000F90
:1090E0000AD0F80708D13CB1A54205D22021584644
:1090F000641EFFF74BFCF6E7002E02DA4E462D21E8
:1091000002E0780703D52B215846FFF73FFC07F014
:10911000030002280BD1B8F1000F08D13CB1A542E1
:1091200005D230215846641EFFF730FCF6E7CDE942
:109130000047434652463146584603F0BDFCBDE861
:10914000FC9F000070B50D46044600684FF488711E
:1091500001F01AFF4FF49071206801F015FF4FF4F1
:109160009271206801F010FF4FF4A271206801F0A5
:109170000BFF20681249C0F8041320686907000B30
:1091800040B2090E002806DA00F00F0000F1E020DE
:1091900080F8141D03E000F1E02080F8001420683E
:1091A0000121000B40B200F01F02914040098000F5
:1091B00000F1E020C0F88012C0F8001170BD00007E
:1091C00010030200024600201268930702D05307E2
:1091D00002D47047500714D502F00300012802D0D2
:1091E00002280CD105E0C2F383100B68801C1844E0
:1091F00004E00223086803EB925210440860012047
:109200007047086800EB9253C2F38910401CEEE7E8
:10921000F0B58488A518944200D82246A41AC288C2
:10922000D6189A4200D81346D21A4B880788BB42F8
:109230000CD34088834209D88888A04206D3A8422C
:1092400004D8C888904201D3B04201D90020F0BDB3
:109250000120F0BD0A4810B5807860B1002401E01B
:10926000022C06D02046FFF7F7F8641C042CF7D335
:1092700010BD0324F6E7BDE81040FFF70DB900006C
:10928000D02A002003480179C90702D00078FFF7EF
:1092900055BA7047D02A0020F7210180172141805C
:1092A000002101714171FB2181711B21C171704746
:1092B0002DE9F047394E002780463D46DFF8E09023
:1092C000D6F804A057E003D00446D0F81C8035E05F
:1092D00099F8002002EB4201521CD2B289F800201A
:1092E00009EBC10199F80230091D9A4201D189F8B0
:1092F000005048680A780446012A12D0022A02D097
:10930000032A3BD108E003F0F3F800B101272574EC
:1093100034E00574C06900E070680028F9D170601D
:109320002CE0207C50BB88686060C868A060086939
:10933000E0604869A061F07800B165606268B1687A
:10934000184B501A20F07F40984202D2A16808447E
:1093500006E0881AA16820F07F40814202D9081AED
:10936000206000E0256065600120A5602074204633
:10937000E56103F09FF8B8F10000A4D199F800105E
:1093800099F801008142A3D117B97168514502D003
:109390000120BDE8F0870020FBE70000302B002013
:1093A00050340020FFFF7F002DE9FF4100262348B5
:1093B00000F087FA2148001F074600F082FA204C8F
:1093C00060680090A56800E000986946284004EBBA
:1093D00080000C30FFF7F6FE0028F5D101AA0099B5
:1093E00001EA050304EB8303491CDB6842F82030E3
:1093F000401C00910228F2D3019800F003000128DC
:109400000BD0022810D10198032101EB9050009954
:10941000BDF80A6001EB900005E00198BDF80A6014
:10942000C0F3831008440090384600F047FA08B1B2
:109430000098606004B03046BDE8F0814C3B0020ED
:1094400034370020ACB002F0E5FA182276496846BD
:10945000FDF70CF97548069075494FF48070CDE919
:10946000070109900723734A06A96846FEF796F894
:1094700008B1FDF7B5FF0C2000F0CAFE4FF4004123
:10948000002001F093F908B1FDF7AAFF01F006F8FA
:10949000FDF7ECFF08B1FDF7A3FF67490320FFF7D5
:1094A00003F908B1FDF79CFF69460020FFF718F8A3
:1094B00008B1FDF795FFFFF7C5FD5B4E6425083E3B
:1094C0004FF47A47741C3846A0476D1EFAD101F05C
:1094D0008BFA08B1FDF784FF01F062FC08B1FDF7DB
:1094E0007FFF002469460120009401F0BFFA08B113
:1094F000FDF776FF684601F063FB08B1FDF770FFEA
:109500009DF808004DA120F00F00401C20F0F00055
:1095100010308DF808000B2202A87CDF08B1FDF79F
:109520005FFF00941020ADF800003C200194ADF8DE
:109530000200ADF804404FF4C870ADF8060068466C
:109540007ADF08B1FDF74CFFFFF722FD3E4801909E
:1095500001A93E4800F00BFB08B1FDF741FF3C4874
:10956000009069463B48FEF7BDFE08B1FDF738FFA5
:10957000AC216846FDF793F802208DF800008DF8C5
:10958000024005208DF803000120ADF84C00314960
:109590008DF87C004020091F2290149144F2506005
:1095A00023902D482990294869460C30FEF74CFA43
:1095B00008B1FDF715FF254801210C30FEF741FAEF
:1095C0001C216846FDF76BF84FF42030CDE90040D0
:1095D0004FF47020029021480590032520488DF813
:1095E0000C500690ADF80E408DF810406846FEF71E
:1095F0002DFC08B1FDF7F4FE1AA0FDF7D9FD1E48B9
:109600001EA1008805EB004001F066F80F48032119
:109610000C30FEF700FB08B1FDF7E2FE00F04CFF56
:1096200001F0F6F9FAE7000058CD0200282D0020DD
:10963000282E002021C70200C98502004E6F7264E7
:1096400069635F554152540055AA02003C2F002027
:1096500029B90200AC2A002055BA020079BA0200EA
:10966000F38B02000D0A55415254207374617274D9
:1096700065642E0D0A000000242C002044656275EC
:1096800067206C6F6767696E6720666F722055414F
:109690005254206F76657220525454207374617254
:1096A0007465642E0000000070B5144682880E4672
:1096B00005462088111D0144921C994201D8FE2ABA
:1096C00001D90C2070BD521C32542088FF21401C4F
:1096D00080B2208031542088401C80B220808119C3
:1096E000288803F0E3F92188084480B22080AA8802
:1096F00042B1A96841B13044FCF7B8FF2088A9887D
:1097000008442080002070BD072070BD2DE9F0477F
:10971000C7880446181D16468946B0FBF7F1B0FB12
:10972000F7F207FB12009A193A44D21CB2FBF7F287
:10973000DDF820A001E02468491E0029FBD13D1A74
:109740008846B54216D818E0BAF1000F05D02118A6
:1097500009EB08002A46091D04E0204409EB080132
:109760002A46001DFCF782FF00202468761BA844CF
:10977000B74201D9354600E03D46002EE4D1BDE8B0
:10978000F087000030B5024659B101F03BF80021E6
:10979000074C09E004EB810315685B88AB4202D1FA
:1097A0001160002030BD491C8142F3D3052030BD3B
:1097B000F02B0020F8B50F46017814460546012924
:1097C00001D1687830B12088821C9A422DD80129B5
:1097D00002D006E00720F8BD69780144891C99424F
:1097E00023D8181A801E86B2ADF800602188B81CF4
:1097F000084469467DDF0028EDD12878022805D18C
:10980000BDF80010B14201D809210AE00821012861
:1098100005D16878B04202D8ADF8000001E0ADF89B
:109820000060BDF80000FE2801D90C20F8BD228898
:10983000401CB8542088401C80B2208039542088B5
:10984000401C2080BDF80010084420800020F8BD96
:1098500010B50A8849888A4203D1FCF71DFE012011
:1098600010BD002010BD70B50C460546FCF7F7FD95
:10987000002802D061882868084470BD01F01F03E9
:1098800001229A40D243490900EB8100114600F0C1
:1098900021B84A0950F8220001F01F02012191402D
:1098A000084000D00120704701F01F0301229A40B8
:1098B000490900EB8100114600F01CB8002100F0BE
:1098C0000FB8012100F016B808B56A46FCF739FE5A
:1098D000009808BD08B56A46FCF719FE009808BD57
:1098E00008B56A46FCF713FE08BD08B56A46FCF7E2
:1098F000F5FD08BD08B56A46FCF7FCFD009808BDFB
:1099000008B56A46FCF72AFE009808BD38B504463B
:1099100000258DF800506846FDF7BCFE216862689E
:10992000086890420ED9401E08600178A38AE26858
:1099300001FB0325227A2168101AC0B20A798242FB
:1099400000D208719DF80000FDF7C8FE284638BD1A
:1099500038B5054600208DF800000C466846FDF736
:1099600099FEE868A98A201AB0FBF1F12A6810680C
:10997000431C136001709DF80000FDF7AFFE38BD79
:1099800010B530B1017A42680368891AC9B21A6009
:1099900006E00E2010BD03681A68541C1C6011708C
:1099A000491EC9B2F7D2006800210171084610BDF6
:1099B000C20800F007030120895C98400840704706
:1099C00010B5C20800F00703885C01249C402043C6
:1099D000885410BD28B1A1F11702E12A03D3072052
:1099E00070470E20704701800020704710B560B1AD
:1099F0000161F72120F8021B20F8021BFB2100F86F
:109A0000021BFFF749FC002010BD0E2010BD000016
:109A1000F0B5858893B00C46002D39D10188002619
:109A20003E4F24293BD006DC102909D011290CD047
:109A3000232958D14FE03A290BD0552953D129E099
:109A40000146204602F05CF84DE0A01DFFF724FC23
:109A500049E02246408934F8061F814200D8084672
:109A60006080172800D217206080106970B160797B
:109A700060B1D7E90001CDE90301ADF80E5060886F
:109A8000ADF81000136903A9104698476671267156
:109A900013B0F0BD0146204602F082F823E0011D1C
:109AA0002C2206A8FCF7E2FDBDF81800BDF81C202A
:109AB00004EBC0014A732269AAB1D7E90423CDE9B6
:109AC0000423ADF81200487B8DF81400226920466B
:109AD00004A9904707E0017A207B884200D2014622
:109AE0002846FFF7ADF8A07A0028D1D0E1882846B3
:109AF000A5DF012570B11128CAD001F025FA024670
:109B0000074808A1008813B005EB0040BDE8F0400D
:109B100000F0E6BDA672E572BAE70000ECD50200DF
:109B2000F02B002073645F626C655F67617474631F
:109B30005F65786368616E67655F6D74755F726598
:109B4000717565737428292072657475726E656409
:109B50002025732E0000000020B10278DE2A03D0F9
:109B6000082070470E20704741800020704760B188
:109B700059B10278DE2A0AD009684160DE210170FD
:109B80004FF6FF714180002070470E20704708207B
:109B900070477FB5054600294DD0002D4BD0087881
:109BA0000C46DE2847D1A8886188884202D1204629
:109BB00003F01CF82888012825D002283BD0112862
:109BC0003AD0512837D135F8040F6188884232D114
:109BD000A978A81C02292ED1017A042903D00629CC
:109BE00001D0052927D10021009102228DF8002003
:109BF00001914FF4C07202910391ADF80420007AF4
:109C000005280FD010E0297A2046012913D1A98810
:109C1000428891420FD10121017204B0BDE8704029
:109C200002F0E4BFADF8041028886946B0DF0028D0
:109C300001D0616888477FBDA88861888842FAD1D1
:109C40004FF6FF7060807FBD00F180400068002803
:109C500000D00120704708B500F18040002101606C
:109C60000068009008BD000070B50B4C207808B16A
:109C700085250FE00020A06060602061E06007485B
:109C800001F09EF9054601F0E5F808B901F082F906
:109C900001202070284670BD34330020658A020000
:109CA00038B500258DF800506846FDF7F3FC074CE9
:109CB000E068401EE060E06810B901F091F9A5701D
:109CC0009DF80000FDF70AFD38BD00003433002088
:109CD0002DE9FF411C460378164D174E45F8232009
:109CE0000C3545F82340F0CE8DE8F0000C788DF867
:109CF00000404C788DF801408C788DF80240CC788B
:109D00008DF803400C798DF805404C798DF80640AC
:109D10008C6802940C7B8DF80C40497B8DF80D10FB
:109D200002B1064A6946001D01F0A4FA04B0BDE87C
:109D3000F08100001834002024D60200B5C20200D1
:109D40001FB5001D069C8DE81E000022694601F02B
:109D500059FB04B010BD0000F0B505460478154865
:109D600089B0164640F82420124A0869121DA2F153
:109D7000080742F82400487F385520226846FCF73F
:109D800075FC04942878385C48B10EB10A4A00E0AA
:109D900000226946281D01F0B9FC09B0F0BD0EB1E2
:109DA000064A00E00022694605F10C0001F064FB60
:109DB000F3E70000F42A002089C9020031C802003C
:109DC00030B40378054CE35C1BB130BC001D01F0DE
:109DD000D3BC30BC0C3001F0B9BB0000F02A00202D
:109DE00030B40378054CE35C1BB130BC001D01F0BE
:109DF00045BD30BC0C3001F01FBC0000F02A002033
:109E00000FB408B50399002904D004AA00926A4649
:109E100000F00FF801B05DF814FB10B5826804463D
:109E2000002A05D0D4E90403216898470020A060E7
:109E300010BD2DE9FC4791460C00804676D014F801
:109E4000011B39B125290ED04046FEF79FFD207831
:109E50000028F4D198F80C00002867D04046BDE8EF
:109E6000FC47FFF7DABF0020012221782B291BD005
:109E70002D2902D0302908D102E040F0010001E094
:109E800040F00200641C002AEFD100252A290ED0E0
:109E90002178A1F130020A2A11D205EB850201EBEB
:109EA0004205641C303DF1E740F00400EAE7D9F8D0
:109EB00000100B1DC9F800300968641C0D4421789E
:109EC00000232E290BD114F8011FA1F130020A2A18
:109ED00005D203EB830201EB4203303BF3E76C292D
:109EE0000DD068290BD0692921D00BDC252918D089
:109EF000582931D063290ED0642915D117E014F800
:109F0000011FECE7702969D0732932D075291BD065
:109F1000782909D120E0D9F80000011DC9F8001006
:109F200001784046FEF732FD641C90E76CE0D9F8FA
:109F300000100A1DC9F800200968CDE900500A2266
:109F40004046FFF7ABF8EFE7D9F800100A1DC9F853
:109F5000002009680A2206E0D9F800100A1DC9F895
:109F6000002009681022CDE90050404602F0A4FD0F
:109F7000DAE7D9F8001000270A1DC9F800200E689A
:109F8000C00705D112E04046761C7F1CFEF7FEFCA0
:109F900031780029F7D104E0202140466D1EFEF7FC
:109FA000F5FCBD42C0D9002DF6D1BDE74EB130461B
:109FB000FCF780FB074604E0202140466D1EFEF7BB
:109FC000E5FCBD4206D9002DF6D103E04046761CE3
:109FD000FEF7DCFC31780029F8D1A5E7D9F80000BC
:109FE000011DC9F80010056830214046FEF7CEFC7F
:109FF00078214046FEF7CAFC08200021CDE9000187
:10A00000034610222946B0E7BDE8FC872DE9F04160
:10A0100028B1016819B1C969BDE8F04108470D4D83
:10A020000D480024461B14270DE000BF04EB8400FC
:10A0300005EB8000016829B1C969884710B101208A
:10A04000BDE8F081641CB6FBF7F0A042EED800201A
:10A05000F6E70000000000000000000004480121B5
:10A060004174007A08B10020704701207047000059
:10A0700014360020012801D0032808D10449002209
:10A0800001284A7400D00020087401F0BFBE704758
:10A090001436002070B50246022801D0032A45D1AB
:10A0A000234C207A002841D0012833D0022831D116
:10A0B00020480023022A006802D0032A2AD11BE08C
:10A0C000E360017911B1012924D10DE0D0E90565E2
:10A0D000711B4FF48056B14200D33146294481614F
:10A0E0004569A9420ED015E00169491C0161426928
:10A0F00091420FD1237213E0E168491CE160082905
:10A1000008D9E3602372022A0AD00D21FEF76CFE03
:10A1100001F072FE607C28B1BDE8704000F0A0BE86
:10A120000021F3E7BDE8704001F070BE70BD000093
:10A1300014360020742B002070B541EA4201DDE99D
:10A1400004564FF0A04441EA830141EA052104EBA3
:10A15000800041EA0641C0F8001770BD70B541EAC1
:10A160004201DDE904564FF0A04441EA830141EA8F
:10A17000052104EB800041EA0641C0F8001770BDDC
:10A1800070B541EA4201DDE904564FF0A04441EACE
:10A19000830141EA052104EB800041EA0641C0F851
:10A1A000001770BD70B541EA4201DDE904564FF079
:10A1B000A04441EA830141EA052104EB800041EA21
:10A1C0000641C0F8001770BD70B541EA4201DDE9F3
:10A1D00004564FF0A04441EA830141EA052104EB13
:10A1E000800041EA0641C0F8001770BD1CB500228E
:10A1F0000B46009211460192FFF7C2FF1CBD1CB531
:10A2000000220B46009211460192FFF7CBFF1CBDC6
:10A210004FF0A04202EB80000321C0F80017704706
:10A220001CB5002100910B46012201911146FFF758
:10A23000A7FF1CBD1CB5002100910B460122019116
:10A240001146FFF7AFFF1CBD1CB5002100910B4666
:10A25000012201911146FFF7B7FF1CBD4FF0A0424C
:10A2600002EB8000D0F8002722F44032C0F800272B
:10A27000D0F8002742EA0141C0F8001770474FF0BC
:10A28000A04201218140C2F80C1570474FF0A04256
:10A2900001218140C2F80C1570474FF0A042012106
:10A2A0008140C2F8081570474FF0A042012181405B
:10A2B000C2F8081570474FF0A042D2F804350121CA
:10A2C000814021EA0300C2F808051940C2F80C15C4
:10A2D000704701224FF0A043824011B1C3F8082516
:10A2E0007047C3F80C25704718B5084B6C460144FD
:10A2F0001B68009306E000BF54F82030D3F81035F7
:10A30000401C08C28142F7D818BD000014D60200D4
:10A31000034908B50844002101600068009008BDA9
:10A320000060004002494058012800D000207047DA
:10A330000060004030B5124B01460020D3F81044B5
:10A34000224609E0157A854205D1401C0A28F7DB30
:10A350004FF0FF3030BD5268002AF3D1421CF9D0D3
:10A360000872D3F810242AB152684A60D3F8102436
:10A37000516030BD0022C3F810144A6030BD0000A7
:10A38000343700207047FCF735BC704708B5034AE6
:10A3900000924023024A00F005F808BD09C10200FE
:10A3A00034360020F0B595B01C4615460F460846D9
:10A3B0001A9E00F0F7FA182109A8FCF770F90E961A
:10A3C000CDE909540023082203A9384600F0FFFA1A
:10A3D00005980690BDF81000ADF81C00BDF81200FD
:10A3E000ADF81E0000208DF821000398082600F02B
:10A3F0000300012802D0022818D032E00398334627
:10A40000850AC0F3C2008DF8200003980FA9C0F39D
:10A410008314A200384600F0DAFA09A8009006ABCF
:10A4200022460FA9284600F019FA1AE00398840D75
:10A43000C0F3C2008DF82000082C01D2254600E0B0
:10A44000082533462A460FA9384600F0C0FA2E44A4
:10A45000641B09AB06AA29460FA800F051F9002C8D
:10A46000EAD1384600F0A4FA15B0F0BD0A4A012935
:10A4700002EBC00007D0022907D0032907D0042926
:10A4800007D00020704702207047042070470079F1
:10A490007047407970470000CCE0020010B5FFF72C
:10A4A00072FF04210348FFF745FF0249012048726B
:10A4B00010BD00008C2B00202DE9F04F8DB0FEF771
:10A4C00075FA18B100200DB0BDE8F08F7A4C4FF04E
:10A4D000000BC4F818B4BFF34F8F60680290A568F2
:10A4E000D846284004EB800008E0216802988142A9
:10A4F00001D86160E6E7284004EB80000C3002A937
:10A50000FEF760FE0028F0D105AA029901EA0503D2
:10A5100004EB8303491CDB6842F82030401C0291A5
:10A520000228F2D3059800F00300022802D0012887
:10A530004ED0A9E005985022810D8946B2EB905F7C
:10A5400000D850210E4666F39F50059008315B48B5
:10A5500000F0DFF9070079D000F024FA4346082222
:10A5600005A9384600F039FA029908F1080A29408D
:10A57000681A8000001D864223D94F4D0C3530B13A
:10A58000C2B204EB8101301A90460C3104E0294636
:10A59000F2B2002590462846C6B25346384600F02F
:10A5A0001CFA0AEB08032DB1324629464FEA070090
:10A5B00000F013FA029909F1030001EB90000290F8
:10A5C0003BE004EB81015346324638460C31EFE75D
:10A5D0000598C0F38310062800D30620059960F380
:10A5E0008911C1F38310801C05918100334800F06C
:10A5F00090F9070048D000F0D5F94346082205A994
:10A60000384600F0EAF908F1080800260FE0029841
:10A61000434600EA0501401C04EB8101029004223C
:10A6200038460C3100F0D9F908F10408761C059879
:10A63000C0F38310B042EAD847B1D4F81054D4F82C
:10A64000180468B1384600F0B3F92FE01CE0687ACE
:10A65000012804D12A6828463946126890476D6857
:10A66000002DF4D1384600F0A3F98DF800B068460B
:10A67000FDF710F8D4F8180408B9029860609DF846
:10A680000000FDF72BF811E0D4F8104404E0216835
:10A690002046896888476468002CF8D10848022160
:10A6A000008801EB004007A100F016F8FEF77EF9E4
:10A6B00080F0010007E700003437002054E1020079
:10A6C000242C00204261636B656E647320666C7598
:10A6D000736865640000000000231A4601F064BE40
:10A6E00008B5012300926A4601F05EFE08BD1CB564
:10A6F000CDE9002302236A4601F056FE1CBD00008E
:10A700002DE9F0470E4680461C46924608293ED861
:10A7100094F80C90002020731946104601F014FBA9
:10A720000025B54206D218F805201AA12046FFF7E9
:10A7300067FB03E019A12046FFF762FB6D1C082DA3
:10A74000EFD317A12046FFF75BFB0025B54210D2DF
:10A7500018F80570FBF786FF0068C05D10F03E0F2B
:10A7600001D03A4600E02E220EA12046FFF748FB1A
:10A7700003E00DA12046FFF743FB6D1C082DE5D338
:10A7800001222146504601F0C1FA84F80C90BDE840
:10A79000F0870000202530327800000020202000C3
:10A7A0007C0000002563000020000000104810B568
:10A7B000FF218160002101604160C0F81814C0F8D9
:10A7C000141480F820140B4800F0F0F800280DD184
:10A7D00009480A490A4B401AC108002003E000BF9B
:10A7E00023F82000401C8842FAD3002010BD00004E
:10A7F0003437002054E1020054E10200CCE00200B2
:10A80000F02B002002480349401AC008704700009E
:10A8100054E10200CCE0020013B56846FEF7B2FF37
:10A8200008B100201CBD0248009950F831001CBD41
:10A83000CCE0020070B508480125D0F8104480F83B
:10A84000205405E06572216820464968884764689D
:10A85000002CF7D170BD0000343700202DE9FF47F0
:10A8600081460C9D00200C462F7B28739846164687
:10A870002946184601F068FA072E42D2DFE806F0B2
:10A8800004090F161F2A360049462846FFF7B8FA72
:10A8900037E0494628462268FFF7B2FA31E0D4E9AA
:10A8A000002349462846FFF7ABFA2AE0A06800904B
:10A8B000D4E9002349462846FFF7A2FA21E0D4E96B
:10A8C0000201CDE90001D4E9002349462846FFF7FB
:10A8D00097FA16E004F1080007C88DE80700D4E9EC
:10A8E000002349462846FFF78BFA0AE004F10800E6
:10A8F0000FC88DE80F00D4E9002349462846FFF72A
:10A900007FFA00222946404601F000FA2F73BDE885
:10A91000FF872DE9F041858A80462D1F4819C01C0C
:10A92000B0FBF5F0C6B24046FEF7F0FF041E19D0AA
:10A930000020207101206071E58000272546761EE9
:10A94000C4F800800BE04046FEF7E0FF60B161799B
:10A95000491C6171286005467F1CC0F80080B74221
:10A96000F1D32046BDE8F081204600F002F8002037
:10A97000F8E72DE9F041457901466B1E002201E020
:10A980000968521C9A42FBD30F680146002605E075
:10A9900038460C68FEF7DCFF2146761CAE42F7D342
:10A9A000BDE8F0810121001DFEF78EBFFEF7E8BF74
:10A9B00010B504460121001DFEF7A2FF10F0FF0FA5
:10A9C00004D12046BDE81040FFF7D3BF10BD38B515
:10A9D00001240094FEF79AFE38BD38B50024009497
:10A9E000FEF794FE38BD0000064910B500204870FF
:10A9F000091D0860BFF35F8F0349044800F05CFA4B
:10AA0000002010BD7C2B0020A0D60200283600209C
:10AA100008B500208DF800006846FCF73BFEF1EE1B
:10AA2000100A20F09F00E1EE100ABFF35F8F084983
:10AA30004020C1F880029DF80000FCF74FFE00F0B6
:10AA400009FA08B141DF08BD20BF40BF20BF08BDE3
:10AA500004E000E0FCF7C4BC20B1034909680160D0
:10AA6000002070470E20704780D802002DE9FE4379
:10AA700006460D460846FFF7EFFF00287ED18046C8
:10AA8000CDF80080CDF80480012406208DF8006008
:10AA9000ADF80400CDF808808DF80240694620200A
:10AAA0002A6869DF3F4F40B100F04EFA024638880D
:10AAB0003D4904EB0040FFF713FECDF800808DF810
:10AAC00001408DF80280CDF80480CDF808808DF823
:10AAD0000380694640202A6869DF40B100F034FAFB
:10AAE00002463888314904EB0040FFF7F9FDCDF804
:10AAF00000808DF80060F720ADF80200CDF80480EA
:10AB0000CDF80880694623202A6869DF40B100F04B
:10AB10001BFA02463888264904EB0040FFF7E0FDA7
:10AB2000CDF80080CDF80480CDF808808DF8004085
:10AB30004646694601202A6869DF40B100F004FA00
:10AB4000024638881B4904EB0040FFF7C9FD4FF46B
:10AB5000B0600090019602966946A1202A6869DFDC
:10AB600040B100F0F1F902463888134904EB004087
:10AB7000FFF7B6FD00960196029600E010E08DF812
:10AB800000606946A0202A6869DF40B100F0DCF966
:10AB900002463888094904EB0040FFF7A1FD002078
:10ABA000BDE8FE832C2C002020DF020068DF0200BD
:10ABB000B4DF020080DE0200CCDE02002CDE0200E8
:10ABC0002DE9F0410446D0F8008060DF2168194D7E
:10ABD000074641451CD92888022606EB004016A1ED
:10ABE000FFF77AFD2888424606EB00401EA1236845
:10ABF000FFF77DFDF006D0F80C012168800200F11E
:10AC00000050421A288825A106EB0040FFF768FD96
:10AC1000012467B1384600F097F9024628882AA136
:10AC200004EB0040FFF75CFD3846BDE8F0812E489C
:10AC30000470F9E72C2C0020496E73756666696311
:10AC400069656E742052414D20616C6C6F63617454
:10AC5000656420666F722074686520536F66744463
:10AC600065766963652E00004368616E67652074D0
:10AC700068652052414D207374617274206C6F635B
:10AC80006174696F6E2066726F6D20307825782050
:10AC9000746F20307825782E000000004D617869AF
:10ACA0006D756D2052414D2073697A6520666F7213
:10ACB000206170706C69636174696F6E20697320C4
:10ACC000307825782E00000073645F626C655F65E4
:10ACD0006E61626C6528292072657475726E656498
:10ACE0002025732E00000000EB2B002030B5154806
:10ACF000ADF5017D0078002821D04FF4FA7500BF32
:10AD0000ADF8005280A9684661DF38B1052816D039
:10AD10000DF5017DBDE83040FCF762BB6C460A4989
:10AD20007DA800F0C9F806E0D0E900212046904750
:10AD30007DA800F0D8F87F980028E1D0F4E70DF561
:10AD4000017D30BDEB2B002084D80200F8B5134CF8
:10AD50002078C0B10120A07001F0A0F9112814D012
:10AD6000022001F0B3F900258DF800506846FCF789
:10AD700091FC11DF064625709DF80000FCF7AEFC43
:10AD80002EB13046F8BD0820F8BD0020F8BDA570F2
:10AD900001F046FA032001F099F9F6E7E82B0020CC
:10ADA0007CB5204C207808B108207CBD0120A07023
:10ADB000002001F073F9112819D0002001F086F964
:10ADC00019480026006801908DF800606846FCF77D
:10ADD00061FC164901A810DF05000AD00020207090
:10ADE0009DF80000FCF77AFC2DB128467CBD0020C0
:10ADF0007CBD0120F3E7A67066700721162001F0E4
:10AE000004F908B1FCF7ECFA0721152001F0FDF870
:10AE100008B1FCF7E5FA01F01FFA012001F056F93C
:10AE2000E5E70000E82B002018D802006573020057
:10AE30000EB50749684600F03FF805E0D0E900107C
:10AE40008847684600F04FF802980028F6D10EBDFA
:10AE500034D802000148007870470000E82B002039
:10AE60000548817819B1007818B1FFF76FBF082045
:10AE70007047FFF795BF0000E82B00201FB568461C
:10AE80004BDF30B1052814D004B0BDE81040FCF70A
:10AE9000A7BA084901A800F00FF806E0D0E90021A0
:10AEA0000098904701A800F01EF803980028E6D00B
:10AEB000F4E71FBDA0D80200016009684160AFF34C
:10AEC000008010B5D0E900215368994201D10021DA
:10AED00004E0D1E90034A34202D01946816010BDDC
:10AEE00008314160F0E7816800290BD00268926860
:10AEF0000A44826041684B689A4203D1083141603C
:10AF0000FFF7DFBF70474058002800D0012070478E
:10AF10000C4A10B502F594730EE0991AC91001EBB2
:10AF2000D171491002EBC1010C68844201D90B4672
:10AF300002E005D201F108029A42EED3002010BDD2
:10AF4000486810BDC0D6020000B5FFF7E1FF002839
:10AF500000D1014800BD0000ACD6020040580028D6
:10AF600000D00120704708B50022425040580090A0
:10AF700008BDD0F80403084000D0012070474058B5
:10AF8000002800D00120704708B5002242504058E8
:10AF9000009008BD08480068012110F0010F08D199
:10AFA0004FF0E020E02280F80024C0F88012C0F8C2
:10AFB000001102480160704700E100E01805004000
:10AFC0000649024600200B790BB1852070470A60C4
:10AFD00001220A7100224A7170470000FC2A0020F9
:10AFE00004490120086004480168C1F300410029B8
:10AFF000FAD170470C00004018040040002802D02D
:10B00000014980010847704741D602002DE9F0410F
:10B010008846054600F062FE234E002828461AD0D6
:10B02000FDF704FD304490F848008009032802D061
:10B0300001280ED007E04FF0A040D0F81005E840FE
:10B0400010F0010F05D003212846BDE8F041FFF7BD
:10B0500005B90221F8E700F04DFE002822D028466D
:10B06000FDF7E4FC04464FF4807000EB84000F4FC2
:10B0700081B207EB8400D0F8102542F00102C0F83D
:10B0800010250846FFF744F9B8F1000F0AD028460A
:10B09000FDF7CCFC56F82000002803D00120A0408A
:10B0A000C7F80403BDE8F081483300200060004089
:10B0B0002DE9FC41DFF8BC80044608EB04000027C2
:10B0C00090F930001346C0170E46401C01D00827E7
:10B0D0004CE0B0781946C0F340022046FDF782FCF0
:10B0E0000546401C41D0B078410719D4C0070AD0AA
:10B0F0004FF0A04000EB8401D1F8000720F00200DF
:10B10000C1F8000707E000217378204600910A4645
:10B110000191FFF723F8174920465431FEF750FC00
:10B12000B078800718D51448317800EB8500D0F846
:10B130001025124B1A40C0F810254FF4F8524FF466
:10B14000403302EA042203EA01410A43D0F8101511
:10B150000A43C0F8102509E008EB0500327810F822
:10B16000481F41EA8211017000E004273846BDE81B
:10B17000FC8100004833002000600040FFE0FCFF3D
:10B180004FF0A041D1F81015C14011F0010000D0DE
:10B190000120704770B5184D95F8580008B1082087
:10B1A00070BD0020411E2A18401CC0B282F8301029
:10B1B0002028F8D300242046FDF706FC641CE4B2E6
:10B1C0000C2CF8D300240D49E0206C6581F80004B4
:10B1D00001264020891FC1F88002C1F800014FF408
:10B1E000BE70FFF795F80649F007C1F8040385F82B
:10B1F0005860204670BD00004833002006E000E0A3
:10B2000000600040034890F85800002800D001205A
:10B2100070470000483300200121B1EB507F01D17D
:10B2200001207047002070470121B1EB507F01D110
:10B23000012070470020704738B50D4600F0D0FD62
:10B24000040014D000208DF800006846FCF722FAB4
:10B25000207928B19DF80000FCF740FA112038BD94
:10B260000120256020719DF80000FCF737FA0020CE
:10B2700038BD00002DE9FC5F0C4601799046DFF8EF
:10B280007CB101EBC1020BEB82060746307F994689
:10B2900010B10820BDE8FC9F594A3868054652F8AD
:10B2A0002110FFF7C9FF08B11120F3E7C6E90089B3
:10B2B000207B0128207802D8FEF7E8FF01E0FEF7A6
:10B2C000F3FF4FF0000ACDF800A0CDF804A02078DD
:10B2D000534652460121FEF777FF60784FF0FF3862
:10B2E000FF2806D08146FEF7D1FF4846FEF7ACFFA7
:10B2F00000E0C146A078FF2809D000228046012343
:10B30000CDF800A01146CDF804A0FEF75DFF387916
:10B31000A17800EBC0020BEB820080F82010E078EF
:10B32000FF2817D0217911B1FEF7B0FF01E0FEF739
:10B33000BBFFE078FEF788FF3879E17800EBC002C8
:10B340000BEB8202D1773A79217902EBC2020BEB47
:10B35000820081772278C5F80825C5F80C95C5F8D4
:10B360001085A068C5F82405217B607B00B1012011
:10B37000012904D0022905D0032908D105E040F0B5
:10B38000020004E040F0040001E040F00600C5F8CF
:10B390005405A079C5F8C005306810B14020C5F843
:10B3A00004030720C5F800053068012108B3386898
:10B3B0006279000B40B200284FEA421206DA00F030
:10B3C0000F0000F1E02080F8142D03E000F1E020F0
:10B3D00080F800243868000B40B200F01F0301FA27
:10B3E00003F24009800000F1E020C0F88022C0F89C
:10B3F0000021504686F81DA031774BE7F43300203A
:10B4000020D602002DE9F04105460F460079154986
:10B4100000EBC00001EB80041646607F10B11120E4
:10B42000BDE8F081206820B116F0140F01D1012091
:10B43000607797E80F0004F10C0888E80F00E07FC0
:10B44000FF2806D0A17F11B1FEF72EFF01E0FEF725
:10B450001DFF33463A4621462868BDE8F04100F01A
:10B4600045BF0000F43300200149024801F0F8B95B
:10B47000A4330020002000402DE9F041054600796A
:10B4800016460F4600EB40012D4A01EBC00102EBCE
:10B49000810494F82A1011B10820BDE8F0812949EF
:10B4A00051F820102868FFF7C7FE08B11120F4E713
:10B4B00039462846FCF72CF9666038692060300070
:10B4C0004FF001062FD03F7F4FF48E712868FFF7B1
:10B4D0004AFD4FF4A2712868FFF745FD28681A4914
:10B4E000C0F8041328684FEA4711000B40B2002847
:10B4F00006DA00F00F0000F1E02080F8141D03E0F0
:10B5000000F1E02080F800142868000B40B200F041
:10B510001F0206FA02F14009800000F1E020C0F8A5
:10B520008012C0F8001128680421C0F8001500201E
:10B53000A061E06184F8290044F8140FA675ACE717
:10B54000A433002018D60200800002002DE9F05F2D
:10B55000054600794FF4017600EB400303EBC00091
:10B56000344B03EB80040020636813B12B68C3F8ED
:10B570000863A3694FF000096BB1E06938B16068F6
:10B5800010B12868C0F804631120BDE8F09FE261A3
:10B590000120216105E0C4F82490A261E160C4F8B3
:10B5A0001C9094F82910014302D1284600F01DFD9B
:10B5B00060680028286803D0C0F804630020E4E72E
:10B5C0004FF4A2763146FFF7CEFCB2464FF4927BA1
:10B5D00059462868FFF7C2FC06464FF48471286874
:10B5E000FFF7BCFC804651462868FFF7B7FC0746CA
:10B5F00048EA07003043EBD056EA070007D121465E
:10B60000286800F071FCA169606A8142E0D8C4F842
:10B6100018900EB10320B8E70FB10F20B5E794F8EA
:10B62000291001200029296801D00860C6E7486078
:10B63000C4E70000A43300202DE9F0470546007957
:10B640000B4600EB400101EBC000234901EB8004F5
:10B65000284600F043F810B11120BDE8F0874FF004
:10B660000008C4F82080A360626184F828804FF449
:10B670008E76474631462868FFF775FC28684FF0FC
:10B680000109C0F808902146286800F0BFFF6068F3
:10B6900000BBD5F800A00EE094F8280008B10F27F1
:10B6A00016E031465046FFF759FC0028F4D02146F9
:10B6B000504600F0ABFF216A60698142F1D3314608
:10B6C0002868FFF74BFC0028F9D02868C0F80C90D8
:10B6D000C4F814803846C0E7A4330020007900EB9A
:10B6E000400101EBC000044901EB800040690028E3
:10B6F00000D0012070470000A43300200149024817
:10B7000001F05AB9D0330020002000402DE9F0416B
:10B710000546164600790F46154A00EBC00102EBBC
:10B72000810494F8201011B10820BDE8F08111497E
:10B7300051F820102868FFF77FFD08B11120F4E7C9
:10B7400039462846FCF728F86660386920601EB143
:10B75000397F2846FDF7F6FC28680821C0F8001557
:10B760000020A061E0610121606184F82010DCE725
:10B77000D03300201CD602002DE9F05F044600798A
:10B780000E4600EBC001DFF8F0A017460AEB81057A
:10B790003046FFF741FDB0B168684FF000084FF444
:10B7A000047910B12168C1F80893A8694FF0000B23
:10B7B00080B1E86948B1686810B12068C0F80493A6
:10B7C0001120BDE8F09F1020FBE7EF614FF001086A
:10B7D0002E6102E0EE60C5E9067B00254FF488711A
:10B7E0002068FFF7D1FB4FF4A2712068FFF7CCFB74
:10B7F0002068C0F83465C0F838752068B8F1000FCB
:10B8000012D0D0F8001241F02001C0F800122079C7
:10B81000D04600EBC0010AEB8100406838B12068D7
:10B82000C0F804932846CCE701210160EFE74FF40C
:10B83000887A4FF4A27951462068FFF7A0FB0746AB
:10B8400049462068FFF79BFB06464FF4927120683B
:10B85000FFF795FB014647EA06000843EBD0227943
:10B8600002EBC20308EB8302C2F818B001B1032552
:10B87000002ED7D00F25D5E7D03300202DE9F04793
:10B8800004460E460079204900EBC00001EB80051C
:10B8900017463046FFF7C0FC30B1204600F036F8BE
:10B8A00020B11120BDE8F0871020FBE76F61AE608A
:10B8B0004FF49076002731462068FFF765FB4FF480
:10B8C000AC7841462068FFF75FFB2068AA68696989
:10B8D000C0F84425C0F848152068012181606868D7
:10B8E00078B9B14649462068FFF749FB064641460C
:10B8F0002068FFF744FB0643F4D000B10F27002077
:10B9000068613846CEE70000D03300200079054951
:10B9100000EBC00001EB80004069002800D001204E
:10B9200070470000D03300202DE9F0410446007834
:10B93000002848D10026254F4FF0010812E0206969
:10B94000805DFBF77DFE05000BD0112DF7D0398807
:10B950002A4608EB01401EA1FEF7C2FE2846FBF76F
:10B960003FFD761CA08AB042E9D8A18A206908442C
:10B9700010F8010C0D2804D10A20FBF761FE1128F4
:10B98000FAD0216908784F2801D06F281BD1487858
:10B990004E2801D06E2804D118A202210020FBF706
:10B9A0002FF8216908784F2801D06F280BD14878EB
:10B9B000462801D0662806D1BDE8F041022112A236
:10B9C0000020FBF71DB8BDE8F0810000242C00200A
:10B9D0004661696C656420726563656976696E6746
:10B9E000204E5553206D6573736167652E20457237
:10B9F000726F7220307825782E2000004C45445F0D
:10BA00004F504E45200000004C45445F434C4F537F
:10BA10004500000010B51B20FEF7FAFB1720FEF7CB
:10BA2000F7FB1820FEF7F4FB1A20FEF7F1FB1620B7
:10BA3000FEF7EEFB1920FEF7EBFB4FF0A0404FF4B2
:10BA40008001C0F80C15C900C0F80815BDE8104009
:10BA5000FAF76CBF10B550B103280CD10220FCF7E7
:10BA600017FE002807D0BDE81040FBF7B9BCBDE8C1
:10BA7000104000F0B5BB10BD0078002807D1044885
:10BA80003B21808876DF002801D0FBF7A9BC7047F6
:10BA9000A02A0020F0B58BB0002601960D46044682
:10BAA0008988406901AAFBF7BBFE0AA8CDE90860B6
:10BAB0000227ADF82070ADF82260218AA88808AA74
:10BAC000ADDF002819D1A069002816D00998FCF72D
:10BAD0006DFC002811D0019E0EB10120307018219C
:10BAE00002A8FAF7DCFD8DF808700394A888ADF879
:10BAF00010000596A16902A888470BB0F0BD0000B0
:10BB000070B58D88027900EBC5042273C97BA41D32
:10BB1000012902D0022904D101E0008800E0408818
:10BB200020802188608881420FD92846A5DF012620
:10BB3000A0B1112814D0FFF707FA02460A480BA15A
:10BB4000008806EB0040FEF7CBFDA179E079814249
:10BB500008D92846BDE87040FDF772B86671F4E771
:10BB60002671F2E770BD0000F02B002073645F6265
:10BB70006C655F67617474635F65786368616E6745
:10BB8000655F6D74755F72657175657374282920C2
:10BB900072657475726E65642025732E0000000056
:10BBA0007CB506468D88C88806EBC504A41D1728F9
:10BBB00000D217202188814200D8084660800020EA
:10BBC000207121882846B5DF50B1FFF7BDF9024644
:10BBD0000E480121008801EB00400DA1FEF780FD19
:10BBE0006079002810D1306900280DD01449D1E9BE
:10BBF0000201CDE90001ADF802506088ADF8040003
:10BC000032696946304690477CBD0000F02B002029
:10BC100073645F626C655F67617474735F6578639A
:10BC200068616E67655F6D74755F7265706C7928A9
:10BC3000292072657475726E65642025732E00006C
:10BC4000ECD50200F0B587B00C4605468E1D8988FC
:10BC5000406906AAFBF7E4FD18216846FAF71FFDC4
:10BC60000195A088069AADF80800039231882B89C7
:10BC7000002704F11200994202D17389022B0DD0E2
:10BC8000AA8991421ED1A96900291BD08DF80070A4
:10BC900004907089ADF81400A96911E0002A11D050
:10BCA000FCF784FB20B1069901200870022002E015
:10BCB0000698077003208DF80000A969002901D0BB
:10BCC0006846884707B0F0BD0068012803D0022805
:10BCD00001D000207047012070470000044908444B
:10BCE00090F93000082801DB0120704700207047E0
:10BCF000483300200449084490F93000082801D254
:10BD000001207047002070474833002010B50C46D2
:10BD1000017A052908D0407A38B1084808A102689C
:10BD20002046FEF76DF800E01AB106A12046FEF7A6
:10BD300067F82046BDE81040FEF76FB8C42B00201E
:10BD4000257300000D0A000038B5C3880D4604466F
:10BD500033B114A0009015A216A12846FEF750F8A2
:10BD6000217A05291CD0607A48B1A088FEF77EFBB5
:10BD7000164951F8202016A12846FEF741F8A08860
:10BD80000021FEF749FD03461049207A143951F885
:10BD9000202001B02846BDE830400EA1FEF730B8A3
:10BDA00038BD00001B5B306D000000001B5B313BA9
:10BDB00033316D0025734C6F67732064726F707040
